{
  "_format": "hh-sol-artifact-1",
  "contractName": "ShadowRoll",
  "sourceName": "contracts/ShadowRoll.sol",
  "abi": [
    {
      "inputs": [
        {
          "internalType": "address",
          "name": "_token",
          "type": "address"
        }
      ],
      "stateMutability": "nonpayable",
      "type": "constructor"
    },
    {
      "inputs": [],
      "name": "ArrayLengthMismatch",
      "type": "error"
    },
    {
      "inputs": [],
      "name": "InsufficientPool",
      "type": "error"
    },
    {
      "inputs": [],
      "name": "NoSalaryFound",
      "type": "error"
    },
    {
      "inputs": [],
      "name": "ReentrantCall",
      "type": "error"
    },
    {
      "inputs": [],
      "name": "TooEarly",
      "type": "error"
    },
    {
      "inputs": [],
      "name": "TransferFailed",
      "type": "error"
    },
    {
      "inputs": [],
      "name": "Unauthorized",
      "type": "error"
    },
    {
      "inputs": [],
      "name": "ZeroAmount",
      "type": "error"
    },
    {
      "anonymous": false,
      "inputs": [
        {
          "indexed": true,
          "internalType": "address",
          "name": "employer",
          "type": "address"
        },
        {
          "indexed": false,
          "internalType": "uint256",
          "name": "count",
          "type": "uint256"
        }
      ],
      "name": "BatchPaymentScheduled",
      "type": "event"
    },
    {
      "anonymous": false,
      "inputs": [
        {
          "indexed": true,
          "internalType": "address",
          "name": "previousOwner",
          "type": "address"
        },
        {
          "indexed": true,
          "internalType": "address",
          "name": "newOwner",
          "type": "address"
        }
      ],
      "name": "OwnershipTransferred",
      "type": "event"
    },
    {
      "anonymous": false,
      "inputs": [
        {
          "indexed": true,
          "internalType": "address",
          "name": "recipient",
          "type": "address"
        }
      ],
      "name": "PaymentClaimed",
      "type": "event"
    },
    {
      "anonymous": false,
      "inputs": [
        {
          "indexed": true,
          "internalType": "address",
          "name": "employer",
          "type": "address"
        },
        {
          "indexed": true,
          "internalType": "address",
          "name": "recipient",
          "type": "address"
        }
      ],
      "name": "PaymentRevoked",
      "type": "event"
    },
    {
      "anonymous": false,
      "inputs": [
        {
          "indexed": true,
          "internalType": "address",
          "name": "employer",
          "type": "address"
        },
        {
          "indexed": true,
          "internalType": "address",
          "name": "recipient",
          "type": "address"
        }
      ],
      "name": "PaymentScheduled",
      "type": "event"
    },
    {
      "anonymous": false,
      "inputs": [
        {
          "indexed": true,
          "internalType": "address",
          "name": "employer",
          "type": "address"
        },
        {
          "indexed": false,
          "internalType": "uint256",
          "name": "amount",
          "type": "uint256"
        }
      ],
      "name": "PoolFunded",
      "type": "event"
    },
    {
      "anonymous": false,
      "inputs": [
        {
          "indexed": true,
          "internalType": "address",
          "name": "employer",
          "type": "address"
        },
        {
          "indexed": true,
          "internalType": "address",
          "name": "recipient",
          "type": "address"
        }
      ],
      "name": "RecurringPaymentExecuted",
      "type": "event"
    },
    {
      "anonymous": false,
      "inputs": [
        {
          "indexed": true,
          "internalType": "address",
          "name": "employer",
          "type": "address"
        },
        {
          "indexed": true,
          "internalType": "address",
          "name": "recipient",
          "type": "address"
        }
      ],
      "name": "RecurringScheduleCancelled",
      "type": "event"
    },
    {
      "anonymous": false,
      "inputs": [
        {
          "indexed": true,
          "internalType": "address",
          "name": "employer",
          "type": "address"
        },
        {
          "indexed": true,
          "internalType": "address",
          "name": "recipient",
          "type": "address"
        },
        {
          "indexed": false,
          "internalType": "uint256",
          "name": "intervalSeconds",
          "type": "uint256"
        }
      ],
      "name": "RecurringScheduleCreated",
      "type": "event"
    },
    {
      "inputs": [
        {
          "internalType": "address[]",
          "name": "recipients",
          "type": "address[]"
        },
        {
          "internalType": "bytes[]",
          "name": "encryptedAmounts",
          "type": "bytes[]"
        }
      ],
      "name": "batchSchedulePayment",
      "outputs": [],
      "stateMutability": "nonpayable",
      "type": "function"
    },
    {
      "inputs": [
        {
          "internalType": "address",
          "name": "recipient",
          "type": "address"
        }
      ],
      "name": "cancelRecurringSchedule",
      "outputs": [],
      "stateMutability": "nonpayable",
      "type": "function"
    },
    {
      "inputs": [],
      "name": "checkMySalary",
      "outputs": [
        {
          "internalType": "bool",
          "name": "",
          "type": "bool"
        }
      ],
      "stateMutability": "view",
      "type": "function"
    },
    {
      "inputs": [
        {
          "internalType": "address",
          "name": "recipient",
          "type": "address"
        },
        {
          "internalType": "bytes",
          "name": "encryptedAmount",
          "type": "bytes"
        },
        {
          "internalType": "uint256",
          "name": "intervalSeconds",
          "type": "uint256"
        }
      ],
      "name": "createRecurringSchedule",
      "outputs": [],
      "stateMutability": "nonpayable",
      "type": "function"
    },
    {
      "inputs": [
        {
          "internalType": "address",
          "name": "",
          "type": "address"
        }
      ],
      "name": "employerPool",
      "outputs": [
        {
          "internalType": "uint256",
          "name": "",
          "type": "uint256"
        }
      ],
      "stateMutability": "view",
      "type": "function"
    },
    {
      "inputs": [
        {
          "internalType": "address",
          "name": "recipient",
          "type": "address"
        }
      ],
      "name": "executeRecurring",
      "outputs": [],
      "stateMutability": "nonpayable",
      "type": "function"
    },
    {
      "inputs": [
        {
          "internalType": "uint256",
          "name": "amount",
          "type": "uint256"
        }
      ],
      "name": "fundPool",
      "outputs": [],
      "stateMutability": "nonpayable",
      "type": "function"
    },
    {
      "inputs": [
        {
          "internalType": "address",
          "name": "user",
          "type": "address"
        }
      ],
      "name": "getEncryptedBalance",
      "outputs": [
        {
          "internalType": "uint256",
          "name": "",
          "type": "uint256"
        }
      ],
      "stateMutability": "view",
      "type": "function"
    },
    {
      "inputs": [],
      "name": "getRecipientList",
      "outputs": [
        {
          "internalType": "address[]",
          "name": "",
          "type": "address[]"
        }
      ],
      "stateMutability": "view",
      "type": "function"
    },
    {
      "inputs": [],
      "name": "getRecurringRecipients",
      "outputs": [
        {
          "internalType": "address[]",
          "name": "",
          "type": "address[]"
        }
      ],
      "stateMutability": "view",
      "type": "function"
    },
    {
      "inputs": [
        {
          "internalType": "address",
          "name": "",
          "type": "address"
        }
      ],
      "name": "hasSalary",
      "outputs": [
        {
          "internalType": "bool",
          "name": "",
          "type": "bool"
        }
      ],
      "stateMutability": "view",
      "type": "function"
    },
    {
      "inputs": [],
      "name": "owner",
      "outputs": [
        {
          "internalType": "address",
          "name": "",
          "type": "address"
        }
      ],
      "stateMutability": "view",
      "type": "function"
    },
    {
      "inputs": [
        {
          "internalType": "address",
          "name": "",
          "type": "address"
        }
      ],
      "name": "recurringSchedules",
      "outputs": [
        {
          "internalType": "bytes",
          "name": "encryptedAmount",
          "type": "bytes"
        },
        {
          "internalType": "uint256",
          "name": "intervalSeconds",
          "type": "uint256"
        },
        {
          "internalType": "uint256",
          "name": "lastExecuted",
          "type": "uint256"
        },
        {
          "internalType": "bool",
          "name": "active",
          "type": "bool"
        }
      ],
      "stateMutability": "view",
      "type": "function"
    },
    {
      "inputs": [
        {
          "internalType": "address",
          "name": "recipient",
          "type": "address"
        }
      ],
      "name": "revokePayment",
      "outputs": [],
      "stateMutability": "nonpayable",
      "type": "function"
    },
    {
      "inputs": [
        {
          "internalType": "address",
          "name": "recipient",
          "type": "address"
        },
        {
          "internalType": "bytes",
          "name": "encryptedAmount",
          "type": "bytes"
        }
      ],
      "name": "schedulePayment",
      "outputs": [],
      "stateMutability": "nonpayable",
      "type": "function"
    },
    {
      "inputs": [],
      "name": "token",
      "outputs": [
        {
          "internalType": "contract IERC20",
          "name": "",
          "type": "address"
        }
      ],
      "stateMutability": "view",
      "type": "function"
    },
    {
      "inputs": [
        {
          "internalType": "address",
          "name": "newOwner",
          "type": "address"
        }
      ],
      "name": "transferOwnership",
      "outputs": [],
      "stateMutability": "nonpayable",
      "type": "function"
    },
    {
      "inputs": [
        {
          "internalType": "uint256",
          "name": "amountToWithdraw",
          "type": "uint256"
        }
      ],
      "name": "unshield",
      "outputs": [],
      "stateMutability": "nonpayable",
      "type": "function"
    }
  ],
  "bytecode": "0x60806040523480156200001157600080fd5b506040516200360638038062003606833981810160405281019062000037919062000129565b336000806101000a81548173ffffffffffffffffffffffffffffffffffffffff021916908373ffffffffffffffffffffffffffffffffffffffff16021790555080600160006101000a81548173ffffffffffffffffffffffffffffffffffffffff021916908373ffffffffffffffffffffffffffffffffffffffff160217905550506200015b565b600080fd5b600073ffffffffffffffffffffffffffffffffffffffff82169050919050565b6000620000f182620000c4565b9050919050565b6200010381620000e4565b81146200010f57600080fd5b50565b6000815190506200012381620000f8565b92915050565b600060208284031215620001425762000141620000bf565b5b6000620001528482850162000112565b91505092915050565b61349b806200016b6000396000f3fe608060405234801561001057600080fd5b50600436106101165760003560e01c8063b48b6c59116100a2578063e6473b2f11610071578063e6473b2f146102de578063ef61cbf6146102fa578063f2fde38b14610318578063f4fd379e14610334578063fc0c546a1461035257610116565b8063b48b6c591461025a578063b872b5ef14610276578063da3a5f72146102a6578063dafd7983146102c257610116565b8063821f1197116100e9578063821f1197146101b8578063896ac5a0146101e85780638da5cb5b1461020457806392705fa2146102225780639650b0ee1461023e57610116565b80631467e0511461011b57806333db0f671461014e578063402dc4e41461016c57806349eaea461461019c575b600080fd5b61013560048036038101906101309190612861565b610370565b6040516101459493929190612952565b60405180910390f35b610156610435565b604051610163919061299e565b60405180910390f35b61018660048036038101906101819190612861565b610489565b60405161019391906129b9565b60405180910390f35b6101b660048036038101906101b19190612a39565b610599565b005b6101d260048036038101906101cd9190612861565b610688565b6040516101df919061299e565b60405180910390f35b61020260048036038101906101fd9190612861565b6106a8565b005b61020c610acb565b6040516102199190612aa8565b60405180910390f35b61023c60048036038101906102379190612861565b610aef565b005b61025860048036038101906102539190612aef565b610e39565b005b610274600480360381019061026f9190612861565b611244565b005b610290600480360381019061028b9190612861565b6115d5565b60405161029d91906129b9565b60405180910390f35b6102c060048036038101906102bb9190612b63565b6115ed565b005b6102dc60048036038101906102d79190612b63565b611831565b005b6102f860048036038101906102f39190612c3c565b611ef4565b005b61030261213e565b60405161030f9190612d7b565b60405180910390f35b610332600480360381019061032d9190612861565b612251565b005b61033c612402565b6040516103499190612d7b565b60405180910390f35b61035a612515565b6040516103679190612dfc565b60405180910390f35b600660205280600052604060002060009150905080600001805461039390612e46565b80601f01602080910402602001604051908101604052809291908181526020018280546103bf90612e46565b801561040c5780601f106103e15761010080835404028352916020019161040c565b820191906000526020600020905b8154815290600101906020018083116103ef57829003601f168201915b5050505050908060010154908060020154908060030160009054906101000a900460ff16905084565b6000600460003373ffffffffffffffffffffffffffffffffffffffff1673ffffffffffffffffffffffffffffffffffffffff16815260200190815260200160002060009054906101000a900460ff16905090565b60008173ffffffffffffffffffffffffffffffffffffffff163373ffffffffffffffffffffffffffffffffffffffff1614158015610513575060008054906101000a900473ffffffffffffffffffffffffffffffffffffffff1673ffffffffffffffffffffffffffffffffffffffff163373ffffffffffffffffffffffffffffffffffffffff1614155b1561054a576040517f82b4290000000000000000000000000000000000000000000000000000000000815260040160405180910390fd5b610592600360008473ffffffffffffffffffffffffffffffffffffffff1673ffffffffffffffffffffffffffffffffffffffff1681526020019081526020016000205461253b565b9050919050565b60008054906101000a900473ffffffffffffffffffffffffffffffffffffffff1673ffffffffffffffffffffffffffffffffffffffff163373ffffffffffffffffffffffffffffffffffffffff161461061e576040517f82b4290000000000000000000000000000000000000000000000000000000000815260040160405180910390fd5b610629838383612545565b8273ffffffffffffffffffffffffffffffffffffffff163373ffffffffffffffffffffffffffffffffffffffff167fcab2eb5274be621fde2d638575560e1b3b0194a3e3194aa7ee3205123a11d30d60405160405180910390a3505050565b60046020528060005260406000206000915054906101000a900460ff1681565b6000600660008373ffffffffffffffffffffffffffffffffffffffff1673ffffffffffffffffffffffffffffffffffffffff16815260200190815260200160002090508060030160009054906101000a900460ff16610733576040517f97ad2bef00000000000000000000000000000000000000000000000000000000815260040160405180910390fd5b806001015481600201546107479190612ea6565b421015610780576040517f085de62500000000000000000000000000000000000000000000000000000000815260040160405180910390fd5b600061081782600001805461079490612e46565b80601f01602080910402602001604051908101604052809291908181526020018280546107c090612e46565b801561080d5780601f106107e25761010080835404028352916020019161080d565b820191906000526020600020905b8154815290600101906020018083116107f057829003601f168201915b5050505050612783565b905060006108248261253b565b905060008103610860576040517f1f2a200500000000000000000000000000000000000000000000000000000000815260040160405180910390fd5b600460008573ffffffffffffffffffffffffffffffffffffffff1673ffffffffffffffffffffffffffffffffffffffff16815260200190815260200160002060009054906101000a900460ff166109b5576005849080600181540180825580915050600190039060005260206000200160009091909190916101000a81548173ffffffffffffffffffffffffffffffffffffffff021916908373ffffffffffffffffffffffffffffffffffffffff1602179055506001600460008673ffffffffffffffffffffffffffffffffffffffff1673ffffffffffffffffffffffffffffffffffffffff16815260200190815260200160002060006101000a81548160ff02191690831515021790555081600360008673ffffffffffffffffffffffffffffffffffffffff1673ffffffffffffffffffffffffffffffffffffffff16815260200190815260200160002081905550610a42565b6109fe600360008673ffffffffffffffffffffffffffffffffffffffff1673ffffffffffffffffffffffffffffffffffffffff16815260200190815260200160002054836127a5565b600360008673ffffffffffffffffffffffffffffffffffffffff1673ffffffffffffffffffffffffffffffffffffffff168152602001908152602001600020819055505b4283600201819055508373ffffffffffffffffffffffffffffffffffffffff1660008054906101000a900473ffffffffffffffffffffffffffffffffffffffff1673ffffffffffffffffffffffffffffffffffffffff167fbf37fc4575879729b1eb54f7f14b6aa02acf992a9ceacbd184b29ea539b8dd4260405160405180910390a350505050565b60008054906101000a900473ffffffffffffffffffffffffffffffffffffffff1681565b60008054906101000a900473ffffffffffffffffffffffffffffffffffffffff1673ffffffffffffffffffffffffffffffffffffffff163373ffffffffffffffffffffffffffffffffffffffff1614610b74576040517f82b4290000000000000000000000000000000000000000000000000000000000815260040160405180910390fd5b600660008273ffffffffffffffffffffffffffffffffffffffff1673ffffffffffffffffffffffffffffffffffffffff16815260200190815260200160002060030160009054906101000a900460ff16610bfa576040517f97ad2bef00000000000000000000000000000000000000000000000000000000815260040160405180910390fd5b6000600660008373ffffffffffffffffffffffffffffffffffffffff1673ffffffffffffffffffffffffffffffffffffffff16815260200190815260200160002060030160006101000a81548160ff02191690831515021790555060005b600780549050811015610ddb578173ffffffffffffffffffffffffffffffffffffffff1660078281548110610c9057610c8f612eda565b5b9060005260206000200160009054906101000a900473ffffffffffffffffffffffffffffffffffffffff1673ffffffffffffffffffffffffffffffffffffffff1603610dce5760076001600780549050610cea9190612f09565b81548110610cfb57610cfa612eda565b5b9060005260206000200160009054906101000a900473ffffffffffffffffffffffffffffffffffffffff1660078281548110610d3a57610d39612eda565b5b9060005260206000200160006101000a81548173ffffffffffffffffffffffffffffffffffffffff021916908373ffffffffffffffffffffffffffffffffffffffff1602179055506007805480610d9457610d93612f3d565b5b6001900381819060005260206000200160006101000a81549073ffffffffffffffffffffffffffffffffffffffff02191690559055610ddb565b8080600101915050610c58565b508073ffffffffffffffffffffffffffffffffffffffff163373ffffffffffffffffffffffffffffffffffffffff167f8264d383f648fb587ea2ab653af4a6c592f1bc4b47999ad142b2f11009aa425b60405160405180910390a350565b60008054906101000a900473ffffffffffffffffffffffffffffffffffffffff1673ffffffffffffffffffffffffffffffffffffffff163373ffffffffffffffffffffffffffffffffffffffff1614610ebe576040517f82b4290000000000000000000000000000000000000000000000000000000000815260040160405180910390fd5b603c811015610f02576040517f08c379a0000000000000000000000000000000000000000000000000000000008152600401610ef990612fc9565b60405180910390fd5b600073ffffffffffffffffffffffffffffffffffffffff168473ffffffffffffffffffffffffffffffffffffffff1603610f71576040517f08c379a0000000000000000000000000000000000000000000000000000000008152600401610f6890613035565b60405180910390fd5b6000610f7d84846127bb565b90506000610f8a8261253b565b905060008103610fc6576040517f1f2a200500000000000000000000000000000000000000000000000000000000815260040160405180910390fd5b610fd1868686612545565b600660008773ffffffffffffffffffffffffffffffffffffffff1673ffffffffffffffffffffffffffffffffffffffff16815260200190815260200160002060030160009054906101000a900460ff16611089576007869080600181540180825580915050600190039060005260206000200160009091909190916101000a81548173ffffffffffffffffffffffffffffffffffffffff021916908373ffffffffffffffffffffffffffffffffffffffff1602179055505b604051806080016040528086868080601f016020809104026020016040519081016040528093929190818152602001838380828437600081840152601f19601f82011690508083019250505050505050815260200184815260200142815260200160011515815250600660008873ffffffffffffffffffffffffffffffffffffffff1673ffffffffffffffffffffffffffffffffffffffff16815260200190815260200160002060008201518160000190816111459190613226565b50602082015181600101556040820151816002015560608201518160030160006101000a81548160ff0219169083151502179055509050508573ffffffffffffffffffffffffffffffffffffffff163373ffffffffffffffffffffffffffffffffffffffff167fc74da48b5aef8c1037e37f744da0437abe5fbfe3fde7d072bea991bc162c5343856040516111da91906129b9565b60405180910390a38573ffffffffffffffffffffffffffffffffffffffff163373ffffffffffffffffffffffffffffffffffffffff167fcab2eb5274be621fde2d638575560e1b3b0194a3e3194aa7ee3205123a11d30d60405160405180910390a3505050505050565b60008054906101000a900473ffffffffffffffffffffffffffffffffffffffff1673ffffffffffffffffffffffffffffffffffffffff163373ffffffffffffffffffffffffffffffffffffffff16146112c9576040517f82b4290000000000000000000000000000000000000000000000000000000000815260040160405180910390fd5b600460008273ffffffffffffffffffffffffffffffffffffffff1673ffffffffffffffffffffffffffffffffffffffff16815260200190815260200160002060009054906101000a900460ff1661134c576040517f97ad2bef00000000000000000000000000000000000000000000000000000000815260040160405180910390fd5b61135660006127d9565b600360008373ffffffffffffffffffffffffffffffffffffffff1673ffffffffffffffffffffffffffffffffffffffff168152602001908152602001600020819055506000600460008373ffffffffffffffffffffffffffffffffffffffff1673ffffffffffffffffffffffffffffffffffffffff16815260200190815260200160002060006101000a81548160ff02191690831515021790555060005b600580549050811015611577578173ffffffffffffffffffffffffffffffffffffffff166005828154811061142c5761142b612eda565b5b9060005260206000200160009054906101000a900473ffffffffffffffffffffffffffffffffffffffff1673ffffffffffffffffffffffffffffffffffffffff160361156a57600560016005805490506114869190612f09565b8154811061149757611496612eda565b5b9060005260206000200160009054906101000a900473ffffffffffffffffffffffffffffffffffffffff16600582815481106114d6576114d5612eda565b5b9060005260206000200160006101000a81548173ffffffffffffffffffffffffffffffffffffffff021916908373ffffffffffffffffffffffffffffffffffffffff16021790555060058054806115305761152f612f3d565b5b6001900381819060005260206000200160006101000a81549073ffffffffffffffffffffffffffffffffffffffff02191690559055611577565b80806001019150506113f4565b508073ffffffffffffffffffffffffffffffffffffffff163373ffffffffffffffffffffffffffffffffffffffff167fbae88ebd7ca4751ab7daa6252c7654ac68a1c084132ab5053127727f81a4046560405160405180910390a350565b60026020528060005260406000206000915090505481565b60008054906101000a900473ffffffffffffffffffffffffffffffffffffffff1673ffffffffffffffffffffffffffffffffffffffff163373ffffffffffffffffffffffffffffffffffffffff1614611672576040517f82b4290000000000000000000000000000000000000000000000000000000000815260040160405180910390fd5b600081036116ac576040517f1f2a200500000000000000000000000000000000000000000000000000000000815260040160405180910390fd5b6000600160009054906101000a900473ffffffffffffffffffffffffffffffffffffffff1673ffffffffffffffffffffffffffffffffffffffff166323b872dd3330856040518463ffffffff1660e01b815260040161170d939291906132f8565b6020604051808303816000875af115801561172c573d6000803e3d6000fd5b505050506040513d601f19601f82011682018060405250810190611750919061335b565b905080611789576040517f90b8ec1800000000000000000000000000000000000000000000000000000000815260040160405180910390fd5b81600260003373ffffffffffffffffffffffffffffffffffffffff1673ffffffffffffffffffffffffffffffffffffffff16815260200190815260200160002060008282546117d89190612ea6565b925050819055503373ffffffffffffffffffffffffffffffffffffffff167f32173d8e51cec3a6fe484b7a1c3febe760cdf96e03d4cca36a43563a4333e8388360405161182591906129b9565b60405180910390a25050565b600860009054906101000a900460ff1615611878576040517f37ed32e800000000000000000000000000000000000000000000000000000000815260040160405180910390fd5b6001600860006101000a81548160ff021916908315150217905550600460003373ffffffffffffffffffffffffffffffffffffffff1673ffffffffffffffffffffffffffffffffffffffff16815260200190815260200160002060009054906101000a900460ff16611916576040517f97ad2bef00000000000000000000000000000000000000000000000000000000815260040160405180910390fd5b60008103611950576040517f1f2a200500000000000000000000000000000000000000000000000000000000815260040160405180910390fd5b600061199a600360003373ffffffffffffffffffffffffffffffffffffffff1673ffffffffffffffffffffffffffffffffffffffff1681526020019081526020016000205461253b565b9050818110156119d6576040517f785eab3700000000000000000000000000000000000000000000000000000000815260040160405180910390fd5b60006119e1836127d9565b9050611a2c600360003373ffffffffffffffffffffffffffffffffffffffff1673ffffffffffffffffffffffffffffffffffffffff16815260200190815260200160002054826127e3565b600360003373ffffffffffffffffffffffffffffffffffffffff1673ffffffffffffffffffffffffffffffffffffffff1681526020019081526020016000208190555082600260008060009054906101000a900473ffffffffffffffffffffffffffffffffffffffff1673ffffffffffffffffffffffffffffffffffffffff1673ffffffffffffffffffffffffffffffffffffffff168152602001908152602001600020541015611b09576040517f785eab3700000000000000000000000000000000000000000000000000000000815260040160405180910390fd5b82600260008060009054906101000a900473ffffffffffffffffffffffffffffffffffffffff1673ffffffffffffffffffffffffffffffffffffffff1673ffffffffffffffffffffffffffffffffffffffff1681526020019081526020016000206000828254611b799190612f09565b925050819055506000611bca600360003373ffffffffffffffffffffffffffffffffffffffff1673ffffffffffffffffffffffffffffffffffffffff1681526020019081526020016000205461253b565b905060008103611db4576000600460003373ffffffffffffffffffffffffffffffffffffffff1673ffffffffffffffffffffffffffffffffffffffff16815260200190815260200160002060006101000a81548160ff02191690831515021790555060005b600580549050811015611db2573373ffffffffffffffffffffffffffffffffffffffff1660058281548110611c6757611c66612eda565b5b9060005260206000200160009054906101000a900473ffffffffffffffffffffffffffffffffffffffff1673ffffffffffffffffffffffffffffffffffffffff1603611da55760056001600580549050611cc19190612f09565b81548110611cd257611cd1612eda565b5b9060005260206000200160009054906101000a900473ffffffffffffffffffffffffffffffffffffffff1660058281548110611d1157611d10612eda565b5b9060005260206000200160006101000a81548173ffffffffffffffffffffffffffffffffffffffff021916908373ffffffffffffffffffffffffffffffffffffffff1602179055506005805480611d6b57611d6a612f3d565b5b6001900381819060005260206000200160006101000a81549073ffffffffffffffffffffffffffffffffffffffff02191690559055611db2565b8080600101915050611c2f565b505b6000600160009054906101000a900473ffffffffffffffffffffffffffffffffffffffff1673ffffffffffffffffffffffffffffffffffffffff1663a9059cbb33876040518363ffffffff1660e01b8152600401611e13929190613388565b6020604051808303816000875af1158015611e32573d6000803e3d6000fd5b505050506040513d601f19601f82011682018060405250810190611e56919061335b565b905080611e8f576040517f90b8ec1800000000000000000000000000000000000000000000000000000000815260040160405180910390fd5b3373ffffffffffffffffffffffffffffffffffffffff167f1e1ff0332b9b38b1d74f969dd049e27243e7c23a45925f2cc216dea42c55865260405160405180910390a2505050506000600860006101000a81548160ff02191690831515021790555050565b60008054906101000a900473ffffffffffffffffffffffffffffffffffffffff1673ffffffffffffffffffffffffffffffffffffffff163373ffffffffffffffffffffffffffffffffffffffff1614611f79576040517f82b4290000000000000000000000000000000000000000000000000000000000815260040160405180910390fd5b818190508484905014611fb8576040517fa24a13a600000000000000000000000000000000000000000000000000000000815260040160405180910390fd5b60008484905003611ff5576040517f1f2a200500000000000000000000000000000000000000000000000000000000815260040160405180910390fd5b60005b848490508110156120e65761205885858381811061201957612018612eda565b5b905060200201602081019061202e9190612861565b84848481811061204157612040612eda565b5b905060200281019061205391906133c0565b612545565b84848281811061206b5761206a612eda565b5b90506020020160208101906120809190612861565b73ffffffffffffffffffffffffffffffffffffffff163373ffffffffffffffffffffffffffffffffffffffff167fcab2eb5274be621fde2d638575560e1b3b0194a3e3194aa7ee3205123a11d30d60405160405180910390a38080600101915050611ff8565b503373ffffffffffffffffffffffffffffffffffffffff167fd4bf00926babef7fa14c06f93959e703863874cbdefeeac15ee9e6fce333fe8c8585905060405161213091906129b9565b60405180910390a250505050565b606060008054906101000a900473ffffffffffffffffffffffffffffffffffffffff1673ffffffffffffffffffffffffffffffffffffffff163373ffffffffffffffffffffffffffffffffffffffff16146121c5576040517f82b4290000000000000000000000000000000000000000000000000000000000815260040160405180910390fd5b600780548060200260200160405190810160405280929190818152602001828054801561224757602002820191906000526020600020905b8160009054906101000a900473ffffffffffffffffffffffffffffffffffffffff1673ffffffffffffffffffffffffffffffffffffffff16815260200190600101908083116121fd575b5050505050905090565b60008054906101000a900473ffffffffffffffffffffffffffffffffffffffff1673ffffffffffffffffffffffffffffffffffffffff163373ffffffffffffffffffffffffffffffffffffffff16146122d6576040517f82b4290000000000000000000000000000000000000000000000000000000000815260040160405180910390fd5b600073ffffffffffffffffffffffffffffffffffffffff168173ffffffffffffffffffffffffffffffffffffffff1603612345576040517f08c379a000000000000000000000000000000000000000000000000000000000815260040161233c90613035565b60405180910390fd5b8073ffffffffffffffffffffffffffffffffffffffff1660008054906101000a900473ffffffffffffffffffffffffffffffffffffffff1673ffffffffffffffffffffffffffffffffffffffff167f8be0079c531659141344cd1fd0a4f28419497f9722a3daafe3b4186f6b6457e060405160405180910390a3806000806101000a81548173ffffffffffffffffffffffffffffffffffffffff021916908373ffffffffffffffffffffffffffffffffffffffff16021790555050565b606060008054906101000a900473ffffffffffffffffffffffffffffffffffffffff1673ffffffffffffffffffffffffffffffffffffffff163373ffffffffffffffffffffffffffffffffffffffff1614612489576040517f82b4290000000000000000000000000000000000000000000000000000000000815260040160405180910390fd5b600580548060200260200160405190810160405280929190818152602001828054801561250b57602002820191906000526020600020905b8160009054906101000a900473ffffffffffffffffffffffffffffffffffffffff1673ffffffffffffffffffffffffffffffffffffffff16815260200190600101908083116124c1575b5050505050905090565b600160009054906101000a900473ffffffffffffffffffffffffffffffffffffffff1681565b6000819050919050565b600061255183836127bb565b9050600061255e8261253b565b90506000810361259a576040517f1f2a200500000000000000000000000000000000000000000000000000000000815260040160405180910390fd5b600460008673ffffffffffffffffffffffffffffffffffffffff1673ffffffffffffffffffffffffffffffffffffffff16815260200190815260200160002060009054906101000a900460ff166126ef576005859080600181540180825580915050600190039060005260206000200160009091909190916101000a81548173ffffffffffffffffffffffffffffffffffffffff021916908373ffffffffffffffffffffffffffffffffffffffff1602179055506001600460008773ffffffffffffffffffffffffffffffffffffffff1673ffffffffffffffffffffffffffffffffffffffff16815260200190815260200160002060006101000a81548160ff02191690831515021790555081600360008773ffffffffffffffffffffffffffffffffffffffff1673ffffffffffffffffffffffffffffffffffffffff1681526020019081526020016000208190555061277c565b612738600360008773ffffffffffffffffffffffffffffffffffffffff1673ffffffffffffffffffffffffffffffffffffffff16815260200190815260200160002054836127a5565b600360008773ffffffffffffffffffffffffffffffffffffffff1673ffffffffffffffffffffffffffffffffffffffff168152602001908152602001600020819055505b5050505050565b6000808280602001905181019061279a9190613438565b905080915050919050565b600081836127b39190612ea6565b905092915050565b60008083838101906127cd9190612b63565b90508091505092915050565b6000819050919050565b600081836127f19190612f09565b905092915050565b600080fd5b600080fd5b600073ffffffffffffffffffffffffffffffffffffffff82169050919050565b600061282e82612803565b9050919050565b61283e81612823565b811461284957600080fd5b50565b60008135905061285b81612835565b92915050565b600060208284031215612877576128766127f9565b5b60006128858482850161284c565b91505092915050565b600081519050919050565b600082825260208201905092915050565b60005b838110156128c85780820151818401526020810190506128ad565b60008484015250505050565b6000601f19601f8301169050919050565b60006128f08261288e565b6128fa8185612899565b935061290a8185602086016128aa565b612913816128d4565b840191505092915050565b6000819050919050565b6129318161291e565b82525050565b60008115159050919050565b61294c81612937565b82525050565b6000608082019050818103600083015261296c81876128e5565b905061297b6020830186612928565b6129886040830185612928565b6129956060830184612943565b95945050505050565b60006020820190506129b36000830184612943565b92915050565b60006020820190506129ce6000830184612928565b92915050565b600080fd5b600080fd5b600080fd5b60008083601f8401126129f9576129f86129d4565b5b8235905067ffffffffffffffff811115612a1657612a156129d9565b5b602083019150836001820283011115612a3257612a316129de565b5b9250929050565b600080600060408486031215612a5257612a516127f9565b5b6000612a608682870161284c565b935050602084013567ffffffffffffffff811115612a8157612a806127fe565b5b612a8d868287016129e3565b92509250509250925092565b612aa281612823565b82525050565b6000602082019050612abd6000830184612a99565b92915050565b612acc8161291e565b8114612ad757600080fd5b50565b600081359050612ae981612ac3565b92915050565b60008060008060608587031215612b0957612b086127f9565b5b6000612b178782880161284c565b945050602085013567ffffffffffffffff811115612b3857612b376127fe565b5b612b44878288016129e3565b93509350506040612b5787828801612ada565b91505092959194509250565b600060208284031215612b7957612b786127f9565b5b6000612b8784828501612ada565b91505092915050565b60008083601f840112612ba657612ba56129d4565b5b8235905067ffffffffffffffff811115612bc357612bc26129d9565b5b602083019150836020820283011115612bdf57612bde6129de565b5b9250929050565b60008083601f840112612bfc57612bfb6129d4565b5b8235905067ffffffffffffffff811115612c1957612c186129d9565b5b602083019150836020820283011115612c3557612c346129de565b5b9250929050565b60008060008060408587031215612c5657612c556127f9565b5b600085013567ffffffffffffffff811115612c7457612c736127fe565b5b612c8087828801612b90565b9450945050602085013567ffffffffffffffff811115612ca357612ca26127fe565b5b612caf87828801612be6565b925092505092959194509250565b600081519050919050565b600082825260208201905092915050565b6000819050602082019050919050565b612cf281612823565b82525050565b6000612d048383612ce9565b60208301905092915050565b6000602082019050919050565b6000612d2882612cbd565b612d328185612cc8565b9350612d3d83612cd9565b8060005b83811015612d6e578151612d558882612cf8565b9750612d6083612d10565b925050600181019050612d41565b5085935050505092915050565b60006020820190508181036000830152612d958184612d1d565b905092915050565b6000819050919050565b6000612dc2612dbd612db884612803565b612d9d565b612803565b9050919050565b6000612dd482612da7565b9050919050565b6000612de682612dc9565b9050919050565b612df681612ddb565b82525050565b6000602082019050612e116000830184612ded565b92915050565b7f4e487b7100000000000000000000000000000000000000000000000000000000600052602260045260246000fd5b60006002820490506001821680612e5e57607f821691505b602082108103612e7157612e70612e17565b5b50919050565b7f4e487b7100000000000000000000000000000000000000000000000000000000600052601160045260246000fd5b6000612eb18261291e565b9150612ebc8361291e565b9250828201905080821115612ed457612ed3612e77565b5b92915050565b7f4e487b7100000000000000000000000000000000000000000000000000000000600052603260045260246000fd5b6000612f148261291e565b9150612f1f8361291e565b9250828203905081811115612f3757612f36612e77565b5b92915050565b7f4e487b7100000000000000000000000000000000000000000000000000000000600052603160045260246000fd5b600082825260208201905092915050565b7f496e74657276616c20746f6f2073686f72740000000000000000000000000000600082015250565b6000612fb3601283612f6c565b9150612fbe82612f7d565b602082019050919050565b60006020820190508181036000830152612fe281612fa6565b9050919050565b7f496e76616c696420616464726573730000000000000000000000000000000000600082015250565b600061301f600f83612f6c565b915061302a82612fe9565b602082019050919050565b6000602082019050818103600083015261304e81613012565b9050919050565b7f4e487b7100000000000000000000000000000000000000000000000000000000600052604160045260246000fd5b60008190508160005260206000209050919050565b60006020601f8301049050919050565b600082821b905092915050565b6000600883026130e67fffffffffffffffffffffffffffffffffffffffffffffffffffffffffffffffff826130a9565b6130f086836130a9565b95508019841693508086168417925050509392505050565b600061312361311e6131198461291e565b612d9d565b61291e565b9050919050565b6000819050919050565b61313d83613108565b6131516131498261312a565b8484546130b6565b825550505050565b600090565b613166613159565b613171818484613134565b505050565b5b818110156131955761318a60008261315e565b600181019050613177565b5050565b601f8211156131da576131ab81613084565b6131b484613099565b810160208510156131c3578190505b6131d76131cf85613099565b830182613176565b50505b505050565b600082821c905092915050565b60006131fd600019846008026131df565b1980831691505092915050565b600061321683836131ec565b9150826002028217905092915050565b61322f8261288e565b67ffffffffffffffff81111561324857613247613055565b5b6132528254612e46565b61325d828285613199565b600060209050601f831160018114613290576000841561327e578287015190505b613288858261320a565b8655506132f0565b601f19841661329e86613084565b60005b828110156132c6578489015182556001820191506020850194506020810190506132a1565b868310156132e357848901516132df601f8916826131ec565b8355505b6001600288020188555050505b505050505050565b600060608201905061330d6000830186612a99565b61331a6020830185612a99565b6133276040830184612928565b949350505050565b61333881612937565b811461334357600080fd5b50565b6000815190506133558161332f565b92915050565b600060208284031215613371576133706127f9565b5b600061337f84828501613346565b91505092915050565b600060408201905061339d6000830185612a99565b6133aa6020830184612928565b9392505050565b600080fd5b600080fd5b600080fd5b600080833560016020038436030381126133dd576133dc6133b1565b5b80840192508235915067ffffffffffffffff8211156133ff576133fe6133b6565b5b60208301925060018202360383131561341b5761341a6133bb565b5b509250929050565b60008151905061343281612ac3565b92915050565b60006020828403121561344e5761344d6127f9565b5b600061345c84828501613423565b9150509291505056fea264697066735822122088c514239809e49a7d1a1171bd988c67e83f0c3e28bc631f1339aea79a9681d964736f6c63430008180033",
  "linkReferences": {},
  "deployedLinkReferences": {}
}